{
  "contractName": "Voting",
  "abi": [
    {
      "constant": true,
      "inputs": [],
      "name": "name",
      "outputs": [
        {
          "name": "",
          "type": "string"
        }
      ],
      "payable": false,
      "stateMutability": "view",
      "type": "function"
    },
    {
      "constant": true,
      "inputs": [
        {
          "name": "",
          "type": "uint256"
        }
      ],
      "name": "variants",
      "outputs": [
        {
          "name": "name",
          "type": "string"
        },
        {
          "name": "description",
          "type": "string"
        },
        {
          "name": "votes",
          "type": "uint256"
        }
      ],
      "payable": false,
      "stateMutability": "view",
      "type": "function"
    },
    {
      "constant": true,
      "inputs": [
        {
          "name": "",
          "type": "address"
        }
      ],
      "name": "isVoted",
      "outputs": [
        {
          "name": "",
          "type": "bool"
        }
      ],
      "payable": false,
      "stateMutability": "view",
      "type": "function"
    },
    {
      "inputs": [],
      "payable": false,
      "stateMutability": "nonpayable",
      "type": "constructor"
    },
    {
      "anonymous": false,
      "inputs": [
        {
          "indexed": true,
          "name": "_variantId",
          "type": "uint256"
        }
      ],
      "name": "votedEvent",
      "type": "event"
    },
    {
      "constant": true,
      "inputs": [],
      "name": "getNumberVariants",
      "outputs": [
        {
          "name": "",
          "type": "uint256"
        }
      ],
      "payable": false,
      "stateMutability": "view",
      "type": "function"
    },
    {
      "constant": false,
      "inputs": [
        {
          "name": "_variantId",
          "type": "uint256"
        }
      ],
      "name": "vote",
      "outputs": [],
      "payable": false,
      "stateMutability": "nonpayable",
      "type": "function"
    },
    {
      "constant": true,
      "inputs": [
        {
          "name": "_variantId",
          "type": "uint256"
        }
      ],
      "name": "getVotesCount",
      "outputs": [
        {
          "name": "",
          "type": "uint256"
        }
      ],
      "payable": false,
      "stateMutability": "view",
      "type": "function"
    },
    {
      "constant": true,
      "inputs": [],
      "name": "getWinVariantId",
      "outputs": [
        {
          "name": "winId",
          "type": "uint256"
        }
      ],
      "payable": false,
      "stateMutability": "view",
      "type": "function"
    }
  ],
  "bytecode": "0x60806040523480156200001157600080fd5b50606060405190810160405280602f81526020017f5768617420697320746865206265737420706c6174666f726d20666f7220444181526020017f505020646576656c6f706d656e743f0000000000000000000000000000000000815250600090805190602001906200008692919062000525565b5060016060604051908101604052806040805190810160405280601181526020017f457468657265756d202b2051756f72756d0000000000000000000000000000008152508152602001606060405190810160405280602381526020017f54726f706963616c20706c616e74207769746820616e20656469626c6520667281526020017f75697400000000000000000000000000000000000000000000000000000000008152508152602001600081525090806001815401808255809150509060018203906000526020600020906003020160009091929091909150600082015181600001908051906020019062000180929190620005ac565b5060208201518160010190805190602001906200019f929190620005ac565b506040820151816002015550505060016060604051908101604052806040805190810160405280600381526020017f454f5300000000000000000000000000000000000000000000000000000000008152508152602001606060405190810160405280602381526020017f54726f706963616c20706c616e74207769746820616e20656469626c6520667281526020017f756974000000000000000000000000000000000000000000000000000000000081525081526020016000815250908060018154018082558091505090600182039060005260206000209060030201600090919290919091506000820151816000019080519060200190620002a6929190620005ac565b506020820151816001019080519060200190620002c5929190620005ac565b506040820151816002015550505060016060604051908101604052806040805190810160405280600481526020017f54524f4e000000000000000000000000000000000000000000000000000000008152508152602001606060405190810160405280602381526020017f54726f706963616c20706c616e74207769746820616e20656469626c6520667281526020017f756974000000000000000000000000000000000000000000000000000000000081525081526020016000815250908060018154018082558091505090600182039060005260206000209060030201600090919290919091506000820151816000019080519060200190620003cc929190620005ac565b506020820151816001019080519060200190620003eb929190620005ac565b506040820151816002015550505060016060604051908101604052806040805190810160405280601581526020017f54656c656772616d204f70656e204e6574776f726b00000000000000000000008152508152602001606060405190810160405280602381526020017f54726f706963616c20706c616e74207769746820616e20656469626c6520667281526020017f756974000000000000000000000000000000000000000000000000000000000081525081526020016000815250908060018154018082558091505090600182039060005260206000209060030201600090919290919091506000820151816000019080519060200190620004f2929190620005ac565b50602082015181600101908051906020019062000511929190620005ac565b50604082015181600201555050506200065b565b828054600181600116156101000203166002900490600052602060002090601f016020900481019282601f106200056857805160ff191683800117855562000599565b8280016001018555821562000599579182015b82811115620005985782518255916020019190600101906200057b565b5b509050620005a8919062000633565b5090565b828054600181600116156101000203166002900490600052602060002090601f016020900481019282601f10620005ef57805160ff191683800117855562000620565b8280016001018555821562000620579182015b828111156200061f57825182559160200191906001019062000602565b5b5090506200062f919062000633565b5090565b6200065891905b80821115620006545760008160009055506001016200063a565b5090565b90565b610805806200066b6000396000f3fe60806040526004361061007d576000357c0100000000000000000000000000000000000000000000000000000000900480630121b93f1461008257806306fdde03146100bd5780631937c2611461014d5780634f8d5e561461019c5780634fe901e2146101c75780635def1113146101f2578063cbff75cb14610319575b600080fd5b34801561008e57600080fd5b506100bb600480360360208110156100a557600080fd5b8101908080359060200190929190505050610382565b005b3480156100c957600080fd5b506100d26104b8565b6040518080602001828103825283818151815260200191508051906020019080838360005b838110156101125780820151818401526020810190506100f7565b50505050905090810190601f16801561013f5780820380516001836020036101000a031916815260200191505b509250505060405180910390f35b34801561015957600080fd5b506101866004803603602081101561017057600080fd5b8101908080359060200190929190505050610556565b6040518082815260200191505060405180910390f35b3480156101a857600080fd5b506101b16105a5565b6040518082815260200191505060405180910390f35b3480156101d357600080fd5b506101dc610643565b6040518082815260200191505060405180910390f35b3480156101fe57600080fd5b5061022b6004803603602081101561021557600080fd5b8101908080359060200190929190505050610650565b604051808060200180602001848152602001838103835286818151815260200191508051906020019080838360005b8381101561027557808201518184015260208101905061025a565b50505050905090810190601f1680156102a25780820380516001836020036101000a031916815260200191505b50838103825285818151815260200191508051906020019080838360005b838110156102db5780820151818401526020810190506102c0565b50505050905090810190601f1680156103085780820380516001836020036101000a031916815260200191505b509550505050505060405180910390f35b34801561032557600080fd5b506103686004803603602081101561033c57600080fd5b81019080803573ffffffffffffffffffffffffffffffffffffffff1690602001909291905050506107b9565b604051808215151515815260200191505060405180910390f35b806000811015801561039b575060018080549050038111155b15156103a657600080fd5b600260003373ffffffffffffffffffffffffffffffffffffffff1673ffffffffffffffffffffffffffffffffffffffff16815260200190815260200160002060009054906101000a900460ff161515156103ff57600080fd5b60018281548110151561040e57fe5b9060005260206000209060030201600201600081548092919060010191905055506001600260003373ffffffffffffffffffffffffffffffffffffffff1673ffffffffffffffffffffffffffffffffffffffff16815260200190815260200160002060006101000a81548160ff021916908315150217905550817ffff3c900d938d21d0990d786e819f29b8d05c1ef587b462b939609625b684b1660405160405180910390a25050565b60008054600181600116156101000203166002900480601f01602080910402602001604051908101604052809291908181526020018280546001816001161561010002031660029004801561054e5780601f106105235761010080835404028352916020019161054e565b820191906000526020600020905b81548152906001019060200180831161053157829003601f168201915b505050505081565b60008160008110158015610571575060018080549050038111155b151561057c57600080fd5b60018381548110151561058b57fe5b906000526020600020906003020160020154915050919050565b600080600160008154811015156105b857fe5b9060005260206000209060030201600201549050600091506000600190505b60018054905081101561063e57816001828154811015156105f457fe5b90600052602060002090600302016002015411156106335760018181548110151561061b57fe5b90600052602060002090600302016002015491508092505b8060010190506105d7565b505090565b6000600180549050905090565b60018181548110151561065f57fe5b9060005260206000209060030201600091509050806000018054600181600116156101000203166002900480601f01602080910402602001604051908101604052809291908181526020018280546001816001161561010002031660029004801561070b5780601f106106e05761010080835404028352916020019161070b565b820191906000526020600020905b8154815290600101906020018083116106ee57829003601f168201915b505050505090806001018054600181600116156101000203166002900480601f0160208091040260200160405190810160405280929190818152602001828054600181600116156101000203166002900480156107a95780601f1061077e576101008083540402835291602001916107a9565b820191906000526020600020905b81548152906001019060200180831161078c57829003601f168201915b5050505050908060020154905083565b60026020528060005260406000206000915054906101000a900460ff168156fea165627a7a7230582097e3d53f9856c8b057dc78c61238f90d6be66a6a3269afa8631ef4622552599a0029",
  "source": "pragma solidity >=0.4.21 <0.6.0;\n\ncontract Voting {\n\n    string public name;\n\n    struct Variant {\n        string name;\n        string description;\n        uint votes;\n    }\n\n    Variant[] public variants;\n\n    mapping(address => bool) public isVoted;\n\n    event votedEvent (\n        uint indexed _variantId\n    );\n\n    constructor() public {\n        name = 'What is the best platform for DAPP development?';\n\n        variants.push(Variant('Ethereum + Quorum', 'Tropical plant with an edible fruit', 0));\n        variants.push(Variant('EOS', 'Tropical plant with an edible fruit', 0));\n        variants.push(Variant('TRON', 'Tropical plant with an edible fruit', 0));\n        variants.push(Variant('Telegram Open Network', 'Tropical plant with an edible fruit', 0));\n    }\n\n    modifier hasNotVoted() {\n        require(!isVoted[msg.sender]);\n        _;\n    }\n\n    modifier validVariantId(uint _variantId) {\n        require(_variantId >= 0 && _variantId <= variants.length - 1);\n        _;\n    }\n\n    function getNumberVariants() public view returns (uint) {\n        return variants.length;\n    }\n\n    function vote(uint _variantId) public validVariantId(_variantId) hasNotVoted {\n        variants[_variantId].votes++;\n        isVoted[msg.sender] = true;\n        emit votedEvent(_variantId);\n    }\n\n    function getVotesCount(uint _variantId) public view validVariantId(_variantId) returns (uint) {\n        return variants[_variantId].votes;\n    }\n\n    function getWinVariantId() public view returns (uint winId) {\n        uint maxVotes = variants[0].votes;\n        winId = 0;\n        for (uint i = 1; i < variants.length; ++i) {\n            if (variants[i].votes > maxVotes) {\n                maxVotes = variants[i].votes;\n                winId = i;\n            }\n        }\n    }\n}",
  "sourcePath": "/Users/i070933/Github/dapp-demo/contracts/Voting.sol",
  "compiler": {
    "name": "solc",
    "version": "0.5.1+commit.c8a2cb62.Emscripten.clang"
  },
  "schemaVersion": "3.0.10",
  "updatedAt": "2019-06-04T06:10:43.878Z",
  "devdoc": {
    "methods": {}
  },
  "userdoc": {
    "methods": {}
  }
}